:020000040800F2
:1000000028080020D50100089908000859080008B0
:1000100095080008050700087D0E00080000000094
:10002000000000000000000000000000710A00084D
:10003000090700080000000021090008850B0008DE
:10004000EF010008EF010008EF010008EF010008D0
:10005000EF010008EF010008EF010008EF010008C0
:10006000EF010008EF010008EF010008EF010008B0
:10007000EF010008EF010008EF010008EF010008A0
:10008000EF010008EF010008EF010008EF01000890
:10009000EF010008EF010008EF010008EF01000880
:1000A000EF010008EF010008EF010008EF01000870
:1000B000EF010008EF010008EF010008EF01000860
:1000C000EF010008EF010008EF010008EF01000850
:1000D000EF010008E90B0008EF010008EF0100083C
:1000E000EF010008EF010008EF010008EF01000830
:1000F000EF010008EF010008EF010008EF01000820
:10010000EF010008EF010008EF010008EF0100080F
:10011000EF010008EF010008EF010008EF010008FF
:10012000EF010008EF010008EF010008EF010008EF
:1001300000F002F800F03FF80AA090E8000C8244BA
:100140008344AAF10107DA4501D100F034F8AFF297
:10015000090EBAE80F0013F0010F18BFFB1A43F0A5
:1001600001031847340E0000540E0000103A24BF5B
:1001700078C878C1FAD8520724BF30C830C144BF0C
:1001800004680C607047000000230024002500264E
:10019000103A28BF78C1FBD8520728BF30C148BFEA
:1001A0000B607047642900F07780002070471FB50E
:1001B0001FBD10B510BD00F037F91146FFF7F7FF6E
:1001C00000F0BCFE00F055F903B4FFF7F2FF03BCEA
:1001D00000F056FE0948804709480047FEE7FEE761
:1001E000FEE7FEE7FEE7FEE7FEE7FEE7FEE7FEE7E7
:1001F00004480549054A064B70470000890B000872
:1002000031010008280200202808002028040020CE
:1002100028040020704700000FB4044910B503AA59
:10022000029800F0D3F810BC5DF814FB1800002011
:100230002DE9F0410E460446002020622046E16888
:10024000884730B3252805D0D4E901219047206A9A
:10025000401CF2E7E168204600278847050018D0D7
:10026000A5F14100192802D820354FF40067324625
:10027000294620462760FFF795FF40B1012804D0AA
:10028000F61D26F007060836D8E7361DD6E72846BD
:10029000DAE7206ABDE8F0812DE9F0410646002446
:1002A00010687529314616A510D0AFF300800028DC
:1002B00002DA404213A507E031688A0701D512A58A
:1002C00002E0490704D511A5012401E0AFF3008045
:1002D00000210A2206F1240709E0B0FBF2FCB0FB82
:1002E000F2F302FB1C00303078541846491C0028F9
:1002F000F3D123462A463046BDE8F04100F00CB861
:10030000000000002D0000002B0000002000000075
:1003100070477047704770472DE9F0470D46994682
:100320009246044600F124080168880604D5E06975
:1003300021F01001216000E00120A84201DD471BEF
:1003400000E00027A1697A1902EB0900081AA061F0
:100350002078C00602D42046AFF30080002608E0D3
:10036000D4E901211AF806009047206A401C761C47
:1003700020624E45F4DB2078C0060AD52046AFF354
:10038000008006E0D4E9012130209047206A401C1B
:100390002062381EA7F10107F4DC07E0D4E901214F
:1003A00018F805009047206A401C2062281EA5F11D
:1003B0000105F3DC2046AFF300802078000602D56B
:1003C0000220BDE8F0870120FBE70000074B70B575
:1003D0000D467B4400F011F80446284600F020F852
:1003E00010B14FF0FF3070BD204670BD430B0000D0
:1003F00001694A1C02610878704700B58FB0CDE9E9
:1004000001310021059105497944CDE903101146D8
:100410006846FFF70DFF0FB000BD0000E5FFFFFFCE
:10042000007B00F080007047754600F02BF8AE4668
:1004300005006946534620F00700854618B020B5F0
:10044000FFF7D6FEBDE820404FF000064FF0000752
:100450004FF000084FF0000B21F00701AC46ACE86C
:10046000C009ACE8C009ACE8C009ACE8C0098D46D9
:10047000704710B50446AFF300802046BDE8104039
:10048000FFF7A2BE00487047C401002021B1826876
:1004900042F00102826003E0826822F00102826081
:1004A0007047000010B504461248844208D101216B
:1004B000401500F063FA0021601500F05FFA17E0C4
:1004C0000D48844208D10121001500F057FA00219F
:1004D000201500F053FA0BE00848844208D10121AE
:1004E000C80300F04BFA00214FF4004000F046FA38
:1004F00010BD00000024014000280140003C0140E4
:10050000014600208A6802F004020AB1012000E0DE
:10051000002070470146C86C80B270470246002038
:1005200013680B400BB1012000E00020704701462A
:1005300000208A6802F008020AB1012000E00020D1
:100540007047000030B502460020002350680F4C71
:1005500020400D790C6844EA0524204350609068DF
:100560000B4C2040D1E902542C434D7944EA450418
:1005700020439060D06A20F470000C7C641EE4B2CA
:10058000234340EA0350D06230BD0000FFFEF0FF7D
:10059000FDF7F1FFF0B504460D4600200021092DBE
:1005A00011DDE068A5F10A0606EB4607072606FA04
:1005B00007F18843A5F10A0606EB460603FA06F1A1
:1005C0000843E0600CE0206905EB4507072606FAC2
:1005D00007F1884305EB450603FA06F1084320615D
:1005E000072A0FDA606B561E06EB86071F2606FAEF
:1005F00007F18843561E06EB860605FA06F1084306
:10060000606322E00D2A0FDA206BD61F06EB860707
:100610001F2606FA07F18843D61F06EB860605FA61
:1006200006F10843206310E0E06AA2F10D0606EB34
:1006300086071F2606FA07F18843A2F10D0606EB8E
:10064000860605FA06F10843E062F0BD816841F0D4
:1006500008018160704721B1826842F4A002826083
:1006600003E0826822F4A00282607047816841F052
:10067000040181607047000000B587B001214FF48C
:10068000017000F06BF94FF4004000F04BF90120CD
:10069000ADF8040000208DF8070001A9174800F00C
:1006A00034F81748FFF7FEFE002002908DF80C008A
:1006B0008DF80D004FF4602004900020059001207B
:1006C0008DF8180002A90E48FFF73CFF01210C48E5
:1006D000FFF7DCFE0A48FFF7B9FF00BF0848FFF745
:1006E00026FF0028FAD10648FFF7C0FF00BF0448E4
:1006F000FFF706FF0028FAD107B000BD000801404F
:100700000024014000BFFEE770472DE9F04102469A
:1007100000250026002000230024002791F803C0B4
:100720000CF00F0591F803C00CF0100CBCF1000F99
:1007300003D091F802C04CEA050591F800C0BCF165
:10074000000F31D0146800202BE04FF0010C0CFAA0
:1007500000F3B1F800C00CEA03069E4220D18300EA
:100760004FF00F0C0CFA03F7BC4305FA03FC4CEAFC
:10077000040491F803C0BCF1280F06D14FF0010C1E
:100780000CFA00FCC2F814C00AE091F803C0BCF1F6
:10079000480F05D14FF0010C0CFA00FCC2F810C054
:1007A000401C0828D1D31460B1F800C0BCF1FF0F81
:1007B00034DD546800202EE000F1080C4FF00108F1
:1007C00008FA0CF3B1F800C00CEA03069E4221D1EE
:1007D00083004FF00F0C0CFA03F7BC4305FA03FC3F
:1007E0004CEA040491F803C0BCF1280F05D100F1D4
:1007F000080C08FA0CF8C2F8148091F803C0BCF198
:10080000480F07D100F1080C4FF0010808FA0CF866
:10081000C2F81080401C0828CED35460BDE8F08197
:100820000161704710B5044607230122214609489B
:10083000FFF7B0FE01210748FFF70DFF00BF0221BF
:100840000448FFF76BFE0028F9D00248FFF762FE6C
:1008500010BD00000024014000BFFEE708B50121E3
:10086000042000F07BF84FF48070ADF800001020F9
:100870008DF8030003208DF8020069460448FFF755
:1008800044FF4FF480710248FFF7CAFF08BD000023
:100890000008014000BFFEE77047000070B500216E
:1008A00000230F22C47804B3154C246804F4E064D8
:1008B000C4F5E064210AC1F10403CA40447804FA93
:1008C00003F184781440214309010E4C0678A155A8
:1008D000047804F01F050124AC4005786D11AD00CB
:1008E00005F1E025C5F8004109E0047804F01F0592
:1008F0000124AC40044D0678761145F8264070BDC1
:100900000CED00E000E400E080E100E0024901437A
:10091000024A1160704700000000FA050CED00E08B
:100920007047000001460020034A506820F4404010
:1009300008435060704700000010024029B1064A89
:10094000D2690243044BDA6104E0034AD26982436C
:10095000014BDA61704700000010024029B1064ADD
:1009600092690243044B9A6104E0034A926982430C
:10097000014B9A61704700000010024029B1064AFD
:10098000D2680243044BDA6004E0034AD26882432F
:10099000014BDA60704700000010024030B50021C2
:1009A0000022002400232D4D6D6805F00C0121B1BB
:1009B000042905D0082923D105E0294D056022E04E
:1009C000274D05601FE0254D6D6805F47012234D1D
:1009D0006D6805F48034022505EB92421CB9214D67
:1009E000554305600BE01D4D6D6805F400351DB1E4
:1009F0001C4D5543056002E0194D5543056002E06A
:100A0000174D056000BF00BF144D6D6805F0F00183
:100A10000909154D6B5C0568DD4045600F4D6D683B
:100A200005F4E061090A104D6B5C4568DD408560A6
:100A30000A4D6D6805F46051C90A0B4D6B5C456841
:100A4000DD40C560054D6D6805F44041890B074DDB
:100A50006B5CC568B5FBF3F5056130BD0010024065
:100A600000127A0000093D00200000203000002024
:100A7000704710B500F002F810BD00000CB5002062
:100A8000019000903348006840F48030314908609C
:100A900000BF3048006800F4003000900198401C0E
:100AA0000190009818B90198B0F5A06FF1D12948CC
:100AB000006800F4003010B10120009001E0002037
:100AC00000900098012843D12348006840F01000AE
:100AD000214908600846006820F0030008600846C5
:100AE000006840F0020008601A48406819494860F0
:100AF0000846406848600846406840F480604860A6
:100B00000846406820F47C1048600846406840F47D
:100B1000E81048600846006840F08070086000BF38
:100B20000C48006800F000700028F9D009484068BF
:100B300020F00300074948600846406840F0020082
:100B4000486000BF0348406800F00C000828F9D155
:100B50000CBD00000010024000200240042808D113
:100B60004FF0E021096941F004014FF0E0221161EA
:100B700007E04FF0E021096921F004014FF0E02285
:100B8000116170477047000010B51348006840F0CD
:100B900001001149086008464068104908400E49A4
:100BA0004860084600680E4908400B49086008463E
:100BB000006820F4802008600846406820F4FE00A9
:100BC00048604FF41F008860FFF753FF4FF000604C
:100BD0000449086010BD0000001002400000FFF84A
:100BE000FFFFF6FE08ED00E010B540F22551084881
:100BF00000F085F858B10648001D0088C1B20548CC
:100C000002880088401C034B18800348815410BDA3
:100C1000003801401C0000203400002000B587B0DF
:100C200001214804FFF78AFE01210420FFF796FE08
:100C30000820ADF8080004208DF80B0002A9214817
:100C4000FFF763FD0420ADF8080003208DF80A00CB
:100C500018208DF80B0002A91A48FFF756FD4FF433
:100C6000165003900020ADF81000ADF81200ADF85A
:100C70001400ADF818000C20ADF8160003A91248B6
:100C800000F08CF8002240F225510F4800F061F886
:100C900001210D4800F01AF84FF4A060FFF736FE6E
:100CA00026208DF8040001208DF8050000208DF825
:100CB000060001208DF8070001A8FFF7EFFD07B03F
:100CC00000BD0000000801400044004021B18289BD
:100CD00042F40052828104E082894DF6FF731A408B
:100CE0008281704702460020B1F5007F00D100BF2D
:100CF00013880B400BB1012000E00020704770B555
:100D00000246002400230025002040F66A16B14266
:100D100000D100BFC1F3421501F01F03012606FAFE
:100D200003F3012D02D19689334006E0022D02D152
:100D3000168A334001E0968A33400C12012606FAE7
:100D400004F41688344013B10CB1012000E00020F7
:100D500070BDF0B50346002400260025002040F6B3
:100D60006A17B94200D100BF1846C1F3421401F01E
:100D70001F06012707FA06F5012C01D10C3004E00B
:100D8000022C01D1103000E014301AB107682F4353
:100D9000076002E00768AF430760F0BD2DE9F04748
:100DA00086B005460E460024A24600BFA146002795
:100DB000B08900B100BF2F462C8A4CF6FF7004406A
:100DC000F08804432C82AC894EF6F3100440B088BE
:100DD00031890843718908430443AC81AC8A4FF6DA
:100DE000FF400440B0890443AC8201A8FFF7D6FD60
:100DF0001F48874202D1DDF810A001E0DDF80CA009
:100E0000A88900F4004040B10AEBCA0000EB0A10C8
:100E100031684900B0FBF1F807E00AEBCA0000EBCB
:100E20000A1031688900B0FBF1F86420B8FBF0F0DB
:100E300004012009642101FB1089A88900F4004005
:100E400040B1322000EBC900B0FBF1F000F0070028
:100E5000044308E0322000EB09106421B0FBF1F0FC
:100E600000F00F0004432C8106B0BDE8F0870000BD
:100E700000380140C1F308028280704700BFFEE7DE
:100E8000014600BF7047000010B56FF00400FFF787
:100E900065FE0A4800680A49B0FBF1F0094908708C
:100EA0000846007800EB4001C1EBC0104FF6FF711F
:100EB00001EAC0000449088010BD000000000020C5
:100EC00000127A0014000020160000200146114A8A
:100ED00012884A434FF0E0235A6100229A611A4671
:100EE000126942F001021A6100BF4FF0E02210695E
:100EF00000F001021AB100F48032002AF5D04FF060
:100F0000E022126922F001024FF0E0231A61002270
:100F10009A6170471600002070B504460D46E1B294
:100F20000548FFF7A7FF00BF40210348FFF7DAFE9F
:100F30000028F9D0204670BD00440040FFF7A4FF10
:100F4000FFF78CFC4FF4FA70FFF7C0FF4FF4A0607E
:100F5000FFF7DCFCFFF762FE4FF4FA70FFF7B6FF15
:100F6000FFF78AFB4FF4FA70FFF7B0FF0020074944
:100F700008600AE00020FFF755FC0446214604A063
:100F8000FFF74AF90A20FFF7A1FFF3E7A00121428A
:100F900025640D0A00000000B80F000800000020C2
:100FA000340000006C010008EC0F00083400002041
:100FB000F40700008801000800A24A0400000000B5
:100FC00000000000010203040607080900000000F9
:100FD0000000000000000000000000000102030407
:0C0FE000010203040607080902040608C9
:0400000508000131BD
:00000001FF
